:100000000C94EA020C9431030C9431030C943103E8
:100010000C9431030C9431030C9431030C94310390
:100020000C9431030C9431030C94F22D0C94C42ED7
:100030000C9404290C9431030C9431030C94310377
:100040000C9431030C9431030C9431030C94310360
:100050000C9431030C9479290C9431030C943103E2
:100060000C9431030C9431030C9431030C94310340
:100070000C9431030C9431030C9431030C94310330
:100080000C9431030C9431030C9431030C94310320
:100090000C9431030C9431030C9431030C94310310
:1000A0000C9431030C9431030C943103AE169A1660
:1000B000B916BE16C316C816CD16D216D716DC163C
:1000C000E116E616EB16F016F516FA16FF160417EB
:1000D00009170E17131718171D17221727172C1794
:1000E000311736173B17401745174A174F17541744
:1000F00059175E17631768176D177217B01EB01E79
:10010000E21EE21E2F1F4D1F6E206E20581FED1F96
:10011000FE1FFE1F5E206E206E2067200E210E2126
:100120002021202117212021202120210E210E21F4
:100130001C21202120211C21312F582F5030582FD5
:100140005030A42FC72F50301E302D302B451400B7
:100150001A000800150017001C0018000C001200FF
:1001600013002A00296104001600070009000A0094
:100170000B0014000E000F0033003400E1001D00DE
:100180001B000600190005001100100036003700A2
:100190003800DA5C0351E000E200E30004532C4134
:1001A000000002515074510052004F002B003400E7
:1001B00031021F0220022102220224020000260234
:1001C00027024C00010000000000000000000000B9
:1001D00000002D0034022F0230025500E100000023
:1001E00000000000000000000000540033002F0059
:1001F00030005600E0000000000000000000000099
:1002000000000000670036023702570035001E006C
:100210001F002000210022002300240025002600CA
:1002200027002A004C003A003B003C003D003E0005
:100230003F002D002E002F00300031000100400053
:1002400041004200430044004500320064004B007E
:100250004E00010001000100010001000100010049
:1002600000000100AB00AA00A900AE0001000100DF
:10027000015CC35CC45CC65CC75CC85CC95CCA5C2E
:10028000CB5C4C000100D65CD55CD45CD35CD25C0A
:10029000D15CD05CCF5CCE5CCC5C01000100C05C6A
:1002A000C15CBC5CBD5CBF5CBE5C010001000100C8
:1002B0000100010001000100010001000100010036
:1002C00000000100010001000100005C2B0034006F
:1002D0003600370013001C0009000A000600150054
:1002E0000F002A00290004001200080018000C006A
:1002F00007000B001700110016002D00E10033006D
:1003000014000D000E001B00050010001A0019005B
:100310001D0028000453E000E200E30001002C006F
:10032000000001515000510052004F002B003A00D4
:100330003B003C003D003E003F001E001F0020002F
:1003400054002A00290040004100420043004400BC
:10035000450021002200230055000000010001009B
:100360000100010001000100010024002500260019
:1003700057005800010001000100010001000100C8
:100380000000270063006700560000000001010123
:100390000101010101010202020202020202020342
:1003A0000303030303030304040404040404050512
:1003B00005050506060606060707070707080808D5
:1003C00008090909090A0A0A0B0B0B0C0C0C0D0D84
:1003D0000D0E0E0E0F0F0F1010111111121213131C
:1003E0001414151516161717181819191A1A1B1B95
:1003F0001C1D1D1E1E1F20202122222324242526F1
:1004000026272829292A2B2C2D2D2E2F3031323228
:10041000333435363738393A3B3C3D3E3F40414234
:10042000434445464748494A4C4D4E4F505153541A
:10043000555658595A5B5D5E5F61626465666869CE
:100440006B6C6D6F7072737577787A7B7D7E80824E
:10045000838587888A8C8E8F91939596989A9C9E97
:10046000A0A2A3A5A7A9ABADAFB1B3B5B7BABCBEA7
:10047000C0C2C4C6C9CBCDCFD1D4D6D8DBDDDFE274
:10048000E4E7E9EBEEF0F3F5F8FAFDFF22034200B2
:100490004D0034003000200048006F0074007300ED
:1004A0007700610070002000520047004200000009
:1004B00016034B005000520065007000750062008A
:1004C0006C006900630000000403090409023B009A
:1004D000020100A0FA090400000103010100092142
:1004E000110100012240000705810308000A0904E8
:1004F00001000103000000092111010001227B001D
:100500000705820320000A120110010000000850B4
:100510004B303401000102000105010902A10185EF
:10052000020901A1000509190129081500250195F5
:1005300008750181020501093009311581257F9572
:10054000027508810609381581257F950175088196
:1005500006050C0A38021581257F9501750881066C
:10056000C0C005010980A101850319012AB7001542
:100570000126B700950175108100C0050C0901A185
:1005800001850419012AA002150126A00295017512
:10059000108100C005010906A101050719E029E73E
:1005A00015002501950875018102950175088101E5
:1005B0000507190029FF150026FF0095067508811B
:1005C0000005081901290595057501910295017528
:1005D000039101C011241FBECFEFDAE0DEBFCDBF13
:1005E00004B603FE27C080913C0490913D04A09185
:1005F0003E04B0913F048730904BA740B04BD1F4FC
:1006000010923C0410923D0410923E0410923F045C
:1006100014BE84B7877F84BF0FB6F894A8958091E5
:100620006000886180936000109260000FBEE0E07F
:10063000F8E3099512E0A0E0B1E0ECE9F3E602C0CE
:1006400005900D92A437B107D9F724E0A4E7B2E0F2
:1006500001C01D92AC33B207E1F70E942C2B0C9421
:10066000CC310C94000081E00E94B5170C94C62890
:1006700080E00E94B5170C94AC2881E0089581E0D9
:1006800008950C943F0308950C9443031F93CF9354
:10069000DF9300D000D01F92CDB7DEB749835A83D5
:1006A0006B833091CF0289819A81311114C0662306
:1006B00059F0222349F00E944726182F682F89817C
:1006C0009A810E94F02503C00E941B26182F698181
:1006D0007A81812F04C00E94472669817A810F9018
:1006E0000F900F900F900F90DF91CF911F910C946E
:1006F0001204FC01262F4081518162817381848123
:100700000C944603CF93DF93EC0160E00E947903E1
:10071000BE01DF91CF910C9444030E9434060E94E5
:1007200087170C9471060C946D0608950E94FC20A6
:100730000E9495032FEF84E39CE02150804090407D
:10074000E1F700C000000C949F290F931F93CF93F3
:10075000DF938C0161E00E947903EC01B8010E94F3
:100760004103882309F444C0B801CE010E94FF1957
:100770008823F1F1B801CE010E94511A8823C1F1FA
:10078000B801CE010E947C1B882391F1B801CE01F3
:100790000E94C518882361F1F8018281882309F13C
:1007A000CB358DE5D807C1F050F4C115FCE5DF0766
:1007B00081F0CF3DDC45A9F40E94582819C0CC3502
:1007C000EDE5DE0761F0CD35DD4559F40E94DA260E
:1007D00008C00E9496030CC00E94E32602C00E943B
:1007E000E626C801DF91CF911F910F910C943D0334
:1007F00080E0DF91CF911F910F91089508950C949F
:10080000FE0381E008950C940104CF93C82F0E9449
:10081000FF038C2F0E940304CF91089580E090E0A5
:100820000895089520E3829FC0011124FC012CE06B
:10083000729FE00DF11D1124E60FF11DEE0FFF1F59
:10084000E45BFE4F859194910895880F991FFC01F8
:10085000E457FC4F859194910895CF93DF930E94C4
:1008600012040E944505EC018115904508F041C035
:10087000C11580E4D80708F0D1C0C83ED10510F5F5
:10088000C03ED10508F0FDC0C83AD10578F4C53A9C
:10089000D10508F0A2C0C130D10509F4F2C008F4B6
:1008A000EEC0C430D10508F0ECC0E9C0CF3BD105A3
:1008B00008F49BC0C03CD10508F4E1C0CE01805CC7
:1008C00091099EC0C11590E2D90758F4C11521E0E5
:1008D000D20708F0D6C0CD3ED10508F4D0C0D0650F
:1008E000D0C0C11580E3D80708F08EC0CE019F703C
:1008F00087C0C11595E5D90708F043C0C11524E5A7
:10090000D20708F0A2C0C11582E5D80708F5C115C5
:1009100091E5D90708F085C0CE0174E096958795DA
:100920007A95E1F783709C2F937021E030E002C04C
:10093000220F331F9A95E2F73C68382BCF70C6958B
:10094000C69580E2C89FE0011124C22BD32B99C029
:100950009E01237033278C2F86958695C115D3452C
:1009600008F064C0C1E0D0E002C0CC0FDD1F2A95C2
:10097000E2F720E2829FC0011124C82BD92BDC684A
:1009800080C0C11529E5D207A0F4C11588E5D807B4
:1009900008F060C0C11596E5D90708F070C08C2F2B
:1009A0000E94D9058F71C82FD0E0DC2FCC27D062F0
:1009B00068C0C1152AE5D20708F451C0CE0190568F
:1009C0008115904208F05BC08D2F8F710E94D90570
:1009D000DD27D0628F71D82B54C0C55AD0E0C15EDC
:1009E000DD4FC881D0E0D0644CC0C85AD0E0CC0FF5
:1009F000DD1FCF50DE4F0990D881C02DD46441C097
:100A00000E942504EC013DC0CE019927D3FF03C00D
:100A1000EC01D86C36C0EC01D06C33C0DF70D06A0A
:100A200030C0DC2FCC27C16FD06A2BC0C1E0D0E032
:100A300002C0CC0FDD1F2A95E2F720E2829FC001A1
:100A40001124C82BD92BDA681CC0DC2FCC27C46F2B
:100A5000D06A17C0DC2FCC27C06FD06A12C08C2F91
:100A60008F700E94D90594E0D695C7959A95E1F7C5
:100A7000CF70D0E0DC2FCC27D069C82B02C0C0E0FB
:100A8000D0E0CE01DF91CF9108958238910569F1D0
:100A9000B0F48133910509F46DC048F489329105B1
:100AA00009F463C08A32910509F469C00895853359
:100AB000910509F455C089339105B9F00895833E35
:100AC000910569F138F4803E9105B1F0823E9105BF
:100AD00009F10895863E9105A9F1873E9105B9F186
:100AE000843E910509F064C023C02091470320FD96
:100AF0004FC021FD4DC008958091470380FD44C043
:100B00008091480380FF44C08091470384FD42C028
:100B100083EE4DC08091470382FF38C0F5CF8091AE
:100B2000470382FD33C08091480380FD31C0ECCF84
:100B30008091480381FF32C08091470384FD2AC021
:100B400087EE35C08091470383FF26C0F5CF8091A3
:100B5000470383FD21C08091480381FD1FC0ECCF76
:100B60008091470385FD1CC01DC08091470385FD12
:100B700019C016C08091470386FD16C017C080912A
:100B8000470386FD13C010C089E311C082EE0FC079
:100B900080EE0DC080E00BC086EE09C084EE07C079
:100BA00089E205C085E303C08AE201C081E390E0E9
:100BB00008959091470392FF0DC0282F2871283087
:100BC00019F4877F846006C0282F2471243011F423
:100BD0008B7F886093FF0DC0282F2871283119F46E
:100BE000877E846106C0282F2471243111F48B7E06
:100BF00088612091480320FF0DC0382F38713830AC
:100C000019F4877F816006C0382F3171313011F4BB
:100C10008E7F886021FF0DC0282F2871283119F49C
:100C2000877E816106C0282F2171213111F48E7ECB
:100C3000886194FD877E08950C94AA270E94CD06B2
:100C40008FE39CE90197F1F700C000000E94CD06F8
:100C500080E00E94580680FF04C00E941C060C948D
:100C60009F2908950C941E060E94B027811102C08E
:100C70000E9458280E94BB2780933B030E94C327F1
:100C800090934803809347030E9432060E94BF2737
:100C9000682F70E080E090E00E94F22460912603CB
:100CA0007091270380912803909129030C942A25A1
:100CB000E82FF0E0EE0FFF1FEF5AFC4F808191818B
:100CC0000895089580EA8A95F1F7089500C008957F
:100CD0000C94620608950C946A060C946B060C94AE
:100CE0006A060C946F06F894E82FE295EF70F0E036
:100CF00031A1282F2F7081E090E001C0880F2A9544
:100D0000EAF7982F9095932391A392A1892B82A320
:100D1000789408950F931F93CF93DF9383E30E94FA
:100D2000730682E30E94730686EC0E94730685E3D5
:100D30000E947306C2E2D2E00EE212E089910E94A4
:100D400073060C171D07D1F710924A03109249033E
:100D5000109252031092510310924C0310924B03C5
:100D6000109254031092530310924E0310924D03AD
:100D700010925603109255031092500310924F0395
:100D8000109258031092570384E00E945B07DF9192
:100D9000CF911F910F910C948D037F928F929F9210
:100DA000AF92BF92CF92DF92EF92FF920F931F9379
:100DB000CF93DF93CEE2D2E089E4A82E83E0B82E71
:100DC00091E5E92E93E0F92E712C01E010E06E011F
:100DD0008881F894E82FE295EF70F0E021A18F7000
:100DE000A80102C0440F551F8A95E2F7CA01922F4D
:100DF000982B91A392A18095892382A378940E9435
:100E00006606E2E2F2E020E030E0812C912C419194
:100E1000A42FA295AF70B0E090968C9190E04F70A7
:100E200002C0959587954A95E2F780FD08C0C801F4
:100E3000022E02C0880F991F0A94E2F702C080E0D8
:100E400090E0882A992A2F5F3F4F2C303105F9F620
:100E50002196F60180810E9473060E946806F501C2
:100E6000808191818816990621F09182808281E0AB
:100E700001C080E0782AF2E0AF0EB11CEA14FB0456
:100E800009F0A5CF272D44E061E573E089E493E004
:100E90000E945C070E949303872DDF91CF911F91E1
:100EA0000F91FF90EF90DF90CF90BF90AF909F9009
:100EB0008F907F9008950895FF920F931F93CF9383
:100EC000DF93F82E092F162FD72FC42F222349F096
:100ED00081E0809378020E94362990937702809374
:100EE0007602809178028823D9F0809176029091E1
:100EF00077020E944E29069798F0EF2DF02FA12F30
:100F0000BD2F80E090E04C2F50E08417950734F41B
:100F1000219131912D933D930196F7CF1092780254
:100F2000DF91CF911F910F91FF90089580917F02E3
:100F300080FF0BC06091D80185E0689FB00111244B
:100F400075956795759567952BC081FF09C0609170
:100F5000D80185E0689FB00111247595679520C080
:100F600082FF07C06091D80185E0689FB00111241D
:100F700017C090917E029923D1F06091D701961706
:100F800088F72091D80185E0289F90011124929F35
:100F9000A001939F500D112470E0CA010E94983067
:100FA0006038710540F46115710519F406C065E0FB
:100FB00070E0862F08958FE7089581E0089580916D
:100FC0007F0280FF08C06091D40170E0759567953D
:100FD0007595679521C081FF06C06091D40170E0CE
:100FE0007595679519C082FF04C06091D40170E0C7
:100FF00010C090917D02992399F06091D3019617CA
:10100000A0F78091D401899FC001112470E00E9453
:1010100098306038710540F46115710519F406C007
:1010200061E070E0862F08958FE7089581E00895CC
:101030008D3E21F40E949607819504C08E3E29F4CE
:101040000E9496078093830208958F3E21F40E94A8
:101050009607819504C0803F29F40E9496078093EB
:1010600082020895893F19F40E94DF0705C08A3F74
:1010700031F40E94DF0781958093840208958B3FAD
:1010800021F40E94DF07819504C08C3F29F40E945F
:10109000DF078093850208959FE0980F983078F4D9
:1010A00021E030E0A90102C0440F551F9A95E2F7F4
:1010B000CA0190918102892B8093810208958D3F0E
:1010C00021F480917F0281600BC08E3F21F48091DA
:1010D0007F02826005C08F3F29F480917F02846087
:1010E00080937F0208958D3E39F49091830297FF9B
:1010F00035C01092830259C08E3E29F4909183022C
:101100001916BCF32BC0909182028F3E29F497FFF1
:1011100025C01092820249C0803F19F41916CCF301
:101120001DC090918402893F29F41916BCF41092D5
:1011300084023BC08A3F19F497FF10C0F8CF8B3F61
:1011400039F49091850297FF09C0109285022DC055
:101150008C3F21F4909185021916BCF39FE0980F03
:10116000983080F421E030E0A90102C0440F551FFF
:101170009A95E2F7CA018095909181028923809324
:10118000810213C08D3F21F480917F028E7F0BC0BE
:101190008E3F21F480917F028D7F05C08F3F29F41F
:1011A00080917F028B7F80937F02809182028111E8
:1011B00006C080918302811102C010927E0280914C
:1011C0008402811106C080918502811102C01092B3
:1011D0007D0208950E94362920918202211104C0C7
:1011E00020918302222321F090937C0280937B0242
:1011F00020918402211104C020918502222321F034
:1012000090937A028093790280E892E00C94C91B53
:10121000EF92FF920F931F93CF93DF9300D000D0F4
:1012200000D0CDB7DEB786E0E0E8F2E0DE0111964F
:1012300001900D928A95E1F7E0908202F09083028E
:101240000091840210918502109282021092830212
:101250001092840210928502E11003C0FF2009F46D
:101260005DC080917B0290917C020E944E29AC016E
:1012700090917E02992339F02091D90130E0241712
:10128000350758F04BC02091DA018AE0289F900181
:1012900011242417350718F041C09F3F19F09F5FB4
:1012A00090937E02EE2061F00E9496071E1414F0C7
:1012B0009FEF01C091E0989F902D1124909382029E
:1012C000FF2061F00E9496071F1414F09FEF01C0E9
:1012D00091E0989F902D1124909383023091820287
:1012E0003323E1F0209183022223C1F045EB340344
:1012F000C0011124992319F09093820203C081E068
:101300008093820235EB2303C0011124992319F045
:101310009093830203C081E080938302011103C094
:10132000112309F45DC08091790290917A020E94A4
:101330004E29AC0190917D02992339F02091D5017D
:1013400030E02417350758F04BC02091D6018AE0D1
:10135000289F900111242417350718F041C09F3FA2
:1013600019F09F5F90937D02002361F00E94DF07D8
:10137000101614F09FEF01C091E0989F902D11245A
:1013800090938402112361F00E94DF07111614F07C
:101390009FEF01C091E0989F902D112490938502BA
:1013A000309184023323E1F0209185022223C1F0A1
:1013B00045EB3403C0011124992319F09093840262
:1013C00003C081E08093840235EB2303C001112424
:1013D000992319F09093850203C081E080938502E0
:1013E0008091820281110BC080918302811107C01C
:1013F00080918402811103C08091850281110E9435
:10140000EA08EB82FC820D831E8386E0FE013196A2
:10141000A0E8B2E001900D928A95E1F726960FB60A
:10142000F894DEBF0FBECDBFDF91CF911F910F911A
:10143000FF90EF900895E0E8F2E086E0DF011D9272
:101440008A95E9F710927E0210927D0210927F0237
:101450000895EF92FF920F931F93CF93DF938B0129
:10146000682F11110AC0442329F0E82FF0E0E45757
:10147000FC4F6491762F862F75C0212F30E0E82F26
:10148000F0E0442321F0E457FC4FE491F0E046E023
:10149000049FC0011124CFEFD0E0BE010E94843030
:1014A0004BEA4603C001479F900D1124800F911D08
:1014B000800F911D982F990F890FAE01421B530B7E
:1014C0004E9FD0014F9FB00D5E9FB00D11249B2FFA
:1014D000189FA0011124452F55278E01041B150BC1
:1014E0000E9FA0010F9F500D1E9F500D11247E01D5
:1014F000E81AF108E29E8001E39E100DF29E100DA5
:101500001124212F3327C21BD30BCE9F9001CF9FD5
:10151000300DDE9F300D112462307105A9F048F4C2
:101520006115710569F061307105C9F48B2F752F54
:101530000DC06430710581F058F06630710579F4A2
:101540007E2F8B2F932F0DC0832F7B2F9E2F09C0B3
:101550008E2F7B2F952F05C08E2F732F02C07E2FCD
:10156000852F692FDF91CF911F910F91FF90EF9001
:10157000089541E00E94290A089520E030E0869F06
:10158000212D969F200D311D1124C9010895BC0104
:101590008230910508F40895613E8EE1780748F4A1
:1015A0009B0195E0369527959A95E1F748E0420F23
:1015B00001C04FEF91E0242F30E0290F311D359508
:1015C0002795229FF001239FF00DF00D11246E1737
:1015D0007F0718F44FEF420F04C02F3F39F091E01E
:1015E000920F491740F78FEF890F08958FEF0895F5
:1015F000482F982F46FD9095E92FEF739F7046FD79
:101600009F5FE295EF70EE0FF0E0EE5CFD4F218101
:10161000299F802D212D112482958F702295207F66
:10162000822B3081982F930F892F47FD8195805809
:101630000895E42FF0E0EE0FFF1FEC5CFE4F4081B9
:1016400034EE439F412D1124E72FF0E050E0445E3B
:101650005F4FDA01A21BB1099D01B7FF03C03195AD
:101660002195310993E0220F331F9A95E1F7AF01DD
:10167000421B530B9A0157FF02C020E030E0279F26
:10168000212D1124722F0895E42FF0E0EE0FFF1F9B
:10169000EC5CFE4F408134EE439F412D1124E82F36
:1016A000F0E050E0445E5F4FDA01A21BB1099D01FA
:1016B000B7FF03C031952195310993E0220F331F05
:1016C0009A95E1F7AF01421B530B9A0157FF02C0F5
:1016D00020E030E0582F259F212D1124822F0895DE
:1016E000622F0895E42FF0E0EE0FFF1FEC5CFE4F39
:1016F0006081621B0895E42FF0E0EE0FFF1FEC5FA6
:10170000FE4F61A9621B0895A22F50E0FA01EE0F6F
:10171000FF1FEC5FFE4F91A9905297FD9195440FEA
:10172000551FFA01EC5CFE4F3081232F30E02A1B5D
:101730003109290F311D97FD3A95620F0895EF92F7
:101740000F931F9393E0099F80011124159507952E
:101750006E2D600F1F910F91EF9008950F93CF930F
:10176000DF93D72FC82F47FD4195E8E3F0E0CF0185
:10177000841B910947FD9395889FB001899F700D47
:10178000700D1124229FC001239F900D900D1124F4
:10179000860F971F0E94C70A682F660F860F682F53
:1017A000600F7D2F8C2FDF91CF910F9108950F93B4
:1017B0001F93522F10E0F801EE0FFF1FEC5FFE4F5A
:1017C000E1A9F0E0B0979F015203D001539FB00D03
:1017D0001124000F111FF801EC5CFE4F008110E096
:1017E0000057110940039001419F300D11242A0F29
:1017F0003B1F37FF02C021583F4F220F232F221FCC
:10180000330B620F1F910F9108950F931F93522F67
:1018100010E0F801EE0FFF1FEC5FFE4FE1A9F0E0D2
:10182000B097EE0FFF1F9F015203D001539FB00DE1
:101830001124000F111FF801EC5CFE4F008110E035
:1018400000571109000F111F40039001419F300DF7
:1018500011242A0F3B1F37FF02C021583F4F220F90
:10186000232F221F330B620F1F910F9108950F93A7
:101870001F9310E0F801EE0FFF1FEC5CFE4F90810C
:10188000905797FD9195000F111FF801EC5FFE4FE7
:10189000E1A9F0E0B097DF01AA0FBB1F8D010E0F89
:1018A0001F1F2003D001219FB00D1124E8E3F0E0B9
:1018B000E91BF10997FDF3959F01220F331F890161
:1018C0000E0F1F1F40039001419F300D11242A0F5E
:1018D0003B1F37FF02C021583F4F220F232F221FEB
:1018E000330B620F1F910F9108950F931F93CF93A6
:1018F000DF93D62F072F182FC42F822F0E94F80AAC
:10190000EC2FF0E0EE0FFF1FEC5CFE4F9081905843
:10191000890F87FD8195880F682F2CE0629F612DCC
:1019200011246D0F702F812FDF91CF911F910F9197
:101930000895E42FF0E0EE0FFF1FEC5CFE4F908166
:10194000921B97FD9195292F38E1239F212D11247A
:10195000620F08954095282F429F412D1124842F16
:10196000089522E8241B08F420E0620F0895EF9206
:10197000FF920F93970195E0099F200D311D1124CF
:101980002F3F310519F010F02FEF30E02095382F60
:10199000320F08F43FEF832F0F91FF90EF900895DF
:1019A000EF92FF920F93E00EF11CF90137FF03C095
:1019B000F195E195F10924E0EE0FFF1F2A95E1F77B
:1019C000EF3FF10519F014F0EFEFF0E09A0157FF47
:1019D00003C031952195310994E0220F331F9A9568
:1019E000E1F72E173F070CF4F901EE0DFF1DEF3F55
:1019F000F10519F010F0EFEFF0E02E2F2095382FC1
:101A0000320F08F43FEF832F0F91FF90EF9008956E
:101A1000EF92FF920F93972F093438F4B701601BB0
:101A200071096F3F710519F010F06FEF70E0485FBA
:101A30005F4F4131510540F0A901485F5F4F41318F
:101A4000510510F06FEF70E06095482F460F08F4D5
:101A50004FEF842F37FF02C02D5F3F4F35952795FD
:101A60003595279560915A03620F792F0F91FF905A
:101A7000EF900895EF92FF920F939701201B310989
:101A80002F3F310519F010F02FEF30E0322F309555
:101A9000482F430F08F44FEF842F620F0F91FF90F0
:101AA000EF900895EF92FF920F939701201B310959
:101AB0002F3F310519F010F02FEF30E02095382F2F
:101AC000320F08F43FEF832F0F91FF90EF900895AE
:101AD000FC019B01009721F477FF2BC080E808955B
:101AE000AC0197FF04C044275527481B590BB90187
:101AF000640F751F37FD0CC0241B350BC901A5E011
:101B0000880F991FAA95E1F70E94983080E20CC0D7
:101B1000CB0165E0880F991F6A95E1F7BA01621B56
:101B2000730B0E94983080E6861BF7FF03C08195F7
:101B3000089580E00895FF920F931F93CF93DF9352
:101B4000F62E172FD82FC901C72FC01BBA010E942C
:101B5000680D982F990F890F7C2F781B719F712D1D
:101B600011246F2D8D2FDF91CF911F910F91FF9039
:101B70000895FF920F931F93CF93DF93F62ED72FE5
:101B8000182FC901C12FC01BBA010E94680D982FE0
:101B9000990F890FC81B2C2F219F212D1124822FD3
:101BA0006F2D7D2FDF91CF911F910F91FF900895A1
:101BB000EF920F931F93CF93DF93D62F172FC82F3A
:101BC000C9010E19070FBA010E94680D702F781B0A
:101BD000719F712D11246D2F8C2FDF91CF911F914B
:101BE0000F91EF900895EF920F931F93CF93DF9390
:101BF000D62FC72F182FC9010E19010FBA010E9445
:101C0000680D081B202F219F212D1124822F6D2F5D
:101C10007C2FDF91CF911F910F91EF9008950F933B
:101C2000CF93DF93D72FC82FC901BA010E94680D47
:101C3000682F600F7D2F8C2FDF91CF910F9108952A
:101C4000EF920F93CF93DF93D72FC82FC9010E19AF
:101C5000BA010E94680D602F681B7D2F8C2FDF91C9
:101C6000CF910F91EF9008950E94B90A089546E030
:101C700050E06CE170E089E593E00C94583146E067
:101C800050E06CE170E089E593E00C947631E9E591
:101C9000F3E085E380838091EE019091EF01A091C4
:101CA000F00181839283A3838FE784838FEF858301
:101CB0000C943F0E80E008950F931F93CF93DF9312
:101CC000C82FD62F8A010E945A0E9CE0C99FF001AE
:101CD0001124EC5FFE4FED0FF11D90819F3F29F025
:101CE000F801E80FF11D90838F5FDF91CF911F9175
:101CF0000F910895E0914002F09141020994E09122
:101D00003C02F0913D0209944F925F926F927F9254
:101D10008F929F92AF92BF92CF92DF92EF920F93EA
:101D20001F93CF93DF932C013B01FC01C0818BE01B
:101D3000C89FC02D1124DBE0DC0FD63308F0D5E3BB
:101D400060915D03669580915F03909160030E94AE
:101D5000BD0A182FCD1708F044C08C2E912CF40129
:101D6000E256FE4F9081F20181818923C1F1F40195
:101D7000EE0FFF1FEC5CFE4FC080D12CF0E7CF1AB6
:101D8000D108F401EE0FFF1FEC5FFE4FA1A8B12CAC
:101D900080E2A81AB108CC9C9001CD9C300D300D8A
:101DA0001124AA9CC001AB9C900D900D1124820FB0
:101DB000931F0E94C70A082F60915A0370915B031A
:101DC00080915C03E12E9501A601F30109950E9423
:101DD000340E462F282F672FC4010E947F0ECF5F3D
:101DE000B9CF81E0D53308F080E0DF91CF911F912A
:101DF0000F91EF90DF90CF90BF90AF909F908F901A
:101E00007F906F905F904F90089568ED7DE00C9407
:101E1000840E63EF7DE00C94840E6FE97BE00C94FC
:101E2000840E60E27EE00C94840EAF92BF92CF925B
:101E3000DF92EF92FF920F931F93CF93DF936C018A
:101E40005B01FC01C0818BE0C89FC02D1124DBE049
:101E5000DC0FD63308F0D5E360915D036695809181
:101E60005F03909160030E94BD0A182FCD1778F58B
:101E7000EC2EF12CF701E256FE4F9081F6018181A4
:101E8000892319F1F701EE0FFF1FEC5FFE4F21A927
:101E900030E020523109F701EE0FFF1FEC5CFE4FDE
:101EA000408150E04057510960915A0370915B03A3
:101EB00080915C03012FF50109950E94340E462F95
:101EC000282F672FC7010E947F0ECF5FCFCF81E001
:101ED000D53308F080E0DF91CF911F910F91FF90F3
:101EE000EF90DF90CF90BF90AF9008956BE97DE0C9
:101EF0000C94150F69EB7DE00C94150F6EEA7BE0F6
:101F00000C94150F6FE07EE00C94150FBF92CF92EA
:101F1000DF92EF92FF920F931F93CF93DF938C0189
:101F20007B01FC01C0818BE0C89FC02D1124DBE048
:101F3000DC0FD63308F0D5E360915D0366956695B6
:101F400080915F03909160030E94BD0AB82ECD1767
:101F5000F0F4CC2ED12CF601E256FE4F9081F80120
:101F60008181892391F060915A0370915B03809184
:101F70005C032B2D4C2FF70109950E94340E462F40
:101F8000282F672FC6010E947F0ECF5FE0CF81E030
:101F9000D53308F080E0DF91CF911F910F91FF9032
:101FA000EF90DF90CF90BF90089569E17BE00C94B3
:101FB000860F64E47BE00C94860F60E77BE00C9472
:101FC000860F62E77BE00C94860F6BE77BE00C9456
:101FD000860F64E87BE00C94860F65E77CE00C9448
:101FE000860F69E97CE00C94860F7F928F929F9216
:101FF000AF92BF92CF92DF92EF92FF920F931F9317
:10200000CF93DF936C015B01FC01C0818BE0C89F23
:10201000C02D1124DBE0DC0FD63308F0D5E360914E
:102020005D036695669580915F03909160030E94C1
:10203000BD0A182F80E4810F0E94F80A90E8F92E5B
:10204000F80E812F0E94F80A20E8722E780ECD1724
:1020500000F58C2E912CF401E256FE4F9081F60192
:1020600081818923A1F060915A0370915B03809173
:102070005C03E12E0C2F272D4F2DF50109950E94B1
:10208000340E462F282F672FC4010E947F0ECF5F8A
:10209000DECF81E0D53308F080E0DF91CF911F9152
:1020A0000F91FF90EF90DF90CF90BF90AF909F90F7
:1020B0008F907F90089567ED7BE00C94F50F65E0BD
:1020C0007CE00C94F50F67E37CE00C94F50FAF9285
:1020D000BF92CF92DF92EF92FF920F931F93CF9315
:1020E000DF937C015B01FC01C0818BE0C89FC02DA8
:1020F0001124DBE0DC0FD63308F0D5E320915D033B
:1021000030E040E050E06FEF7FEF80E090E00E9431
:10211000AC308901CD17E8F5CC2ED12CF601E25672
:10212000FE4F9081F7018181892389F190916303AA
:10213000915097FD15C0292F092E000C330BF90182
:10214000ED59FC4F8189C813F3CF220F331FF901DA
:10215000ED59FC4F218D328D2017310748F701C012
:10216000980160915D03C9010E94BD0AAC016091B4
:102170005A0370915B0380915C03F50109950E94FD
:10218000340E462F282F672FC6010E947F0ECF5F87
:10219000C1CF81E0D53308F080E0DF91CF911F916E
:1021A0000F91FF90EF90DF90CF90BF90AF90089588
:1021B0006AEA7CE00C94671061EB7CE00C94671099
:1021C0002F923F924F925F926F927F928F929F9247
:1021D000AF92BF92CF92DF92EF92FF920F931F9335
:1021E000CF93DF93CDB7DEB729970FB6F894DEBF54
:1021F0000FBECDBF8B834B013A01DB011C918BE0FD
:10220000189F102D1124BBE0B10FB983B63310F025
:10221000E5E3E983F0916303FA838981181708F0F5
:102220007BC0A12EB12CF501E256FE4F9081D40166
:1022300011968C91892309F46DC020905A03309037
:102240005B034B80512CC501880F991FFC01EC5C8E
:10225000FE4FFD83EC83C501880F991F9C012B5C09
:102260003E4F3F832E83FA814F1608F043C0E42C83
:10227000F12CAC81BD81BC91EB2FF0E0F987E887B0
:10228000F701ED59FC4F818128853985281B3109DB
:1022900039872887AE81BF81CC90D12C8185C81A1F
:1022A000D108F901EE9F9001EF9F300D300D112400
:1022B000CC9CC001CD9C900D900D1124820F931FDA
:1022C0000E94C70A082FF701EE0FFF1FED59FC4FC0
:1022D00060915D03818D928D0E94BD0A7C01960103
:1022E00048855985B101852DF30109951B0143945A
:1022F000582EB9CF20915C03352D329F312D1124FA
:10230000832FB1010E94340E462F282F672FC5015D
:102310000E947F0E1F5F81CF81E09981953308F085
:1023200080E029960FB6F894DEBF0FBECDBFDF91D7
:10233000CF911F910F91FF90EF90DF90CF90BF90C2
:10234000AF909F908F907F906F905F904F903F9055
:102350002F9008952091630331E0231B08F420E0BF
:1023600047EB5CE0BC01822F0C94E01047EB5CE093
:10237000BC0180E00C94E0102091630331E0231B4A
:1023800008F420E040ED5CE0BC01822F0C94E010EA
:1023900040ED5CE0BC0180E00C94E0102091630310
:1023A00031E0231B08F420E048E05DE0BC01822F0F
:1023B0000C94E01048E05DE0BC0180E00C94E0107B
:1023C0002091630331E0231B08F420E04AE35DE041
:1023D000BC01822F0C94E0104AE35DE0BC0180E078
:1023E0000C94E0102091630331E0231B08F420E0FB
:1023F00042E55DE0BC01822F0C94E01042E55DE017
:10240000BC0180E00C94E010DF92EF92FF920F93FA
:102410001F93CF93DF938C01DC018C91CBE08C9FD9
:10242000C02D1124DBE0DC0FD63308F0D5E360913A
:102430005A0370915B0380915C030E94340EF62E68
:10244000E72ED82ECD1798F4EC2FF0E0DF01A2563E
:10245000BE4F8C91D80111969C91982331F02D2D6F
:102460004F2D6E2DCF010E947F0ECF5FEBCF81E00D
:10247000D53308F080E0DF91CF911F910F91FF904D
:10248000EF90DF900895AF92BF92CF92DF92EF92DC
:10249000FF920F931F93CF93DF938C01FC01C081B8
:1024A0008BE0C89FC02D1124DBE0DC0FD63308F091
:1024B000D5E3E0905B03F0905C03D0905A036D2D60
:1024C0007E2D8F2D0E94340EC62EB72EA82E609121
:1024D0005D036D0D7E2D8F2D0E94340EF62EE72E9E
:1024E000D82ECD17B8F48C2F90E0FC01E256FE4FA9
:1024F0003081F8012181232359F030FF04C02D2DB4
:102500004F2D6E2D03C02A2D4C2D6B2D0E947F0E5A
:10251000CF5FE7CF81E0D53308F080E0DF91CF9146
:102520001F910F91FF90EF90DF90CF90BF90AF90F1
:102530000895BF92CF92DF92EF92FF920F931F9375
:10254000CF93DF936C01FC01C0818BE0C89FC02D4D
:102550001124DBE0DC0FD63308F0D5E300915B03F8
:10256000B0905C0320915D0310E4129F112D1124A3
:10257000CD1718F5EC2EF12CF701E256FE4F9081A5
:10258000F60181818923B9F0F701EE0FFF1FEC5F9F
:10259000FE4F81A982958F7060915A03819F600DD3
:1025A0001124702F8B2D0E94340E462F282F672F59
:1025B000C7010E947F0ECF5FDBCF81E0D53308F0EB
:1025C00080E0DF91CF911F910F91FF90EF90DF900E
:1025D000CF90BF900895BF92CF92DF92EF92FF927B
:1025E0000F931F93CF93DF937C01FC01C0818BE09D
:1025F000C89FC02D1124DBE0DC0FD63308F0D5E3F3
:10260000C0905B03B0905C0320915D0330E4D32E57
:102610003D2D329F312D1124D32ECD1738F50C2F9F
:1026200010E0F801E256FE4F9081F7018181892385
:10263000D9F0F801EE0FFF1FEC5CFE4F6081D69ED3
:10264000B001112495E0759567959A95E1F7809111
:102650005A03680F7C2D8B2D0E94340E462F282F95
:10266000672FC8010E947F0ECF5FD7CF81E0D5339F
:1026700008F080E0DF91CF911F910F91FF90EF90D4
:10268000DF90CF90BF900895DF92EF92FF920F936B
:102690001F93CF93DF938C01DC01CC918BE0C89F1B
:1026A000C02D1124DBE0DC0FD63308F0D5E3E09039
:1026B0005A03F0905B03D0905C0360915D036695D4
:1026C0006695669580915F03909160030E94BD0AB4
:1026D0000E94F80A805887FD8195880F282F3D2D8C
:1026E000239F212D1124822FB7010E94340EF62E34
:1026F000E72ED82ECD1798F4EC2FF0E0DF01A2568C
:10270000BE4F8C91D80111969C91982331F02D2DBC
:102710004F2D6E2DCF010E947F0ECF5FEBCF81E05A
:10272000D53308F080E0DF91CF911F910F91FF909A
:10273000EF90DF900895DF92EF92FF920F931F9337
:10274000CF93DF93EC01FC01E256FE4F90816923A9
:1027500081F1D0905B0300915C0310915A03E12E4C
:10276000F12C0E943F31282FC7018C549F4F68E6FF
:1027700071E00E9498308E199F0997FD03969595F8
:102780008795959587952370612F289F600D11245B
:102790007D2D802F0E94340E462F282F672FCE01CB
:1027A000DF91CF911F910F91FF90EF90DF900C94EC
:1027B0007F0EDF91CF911F910F91FF90EF90DF90EF
:1027C0000895CF92DF92FF920F931F93CF93DF93E1
:1027D0008C01FC01C281C1111DC060915D0320E12B
:1027E000620F08F46FEF80915F03909160030E9485
:1027F000BD0A6AE070E00E948430892B59F50E947E
:102800003F3165E370E00E949830F80161810E94D9
:102810009B1320C0FC018081CBE08C9FC02D112434
:102820009BE0F92EFC0EF5E3FF1510F485E3F82E7E
:10283000D0E0CF2CD12CCC15DD053CF4F801618122
:10284000CE010E949B132196F6CFC1E0F4E3FF1561
:1028500008F4C0E08C2FDF91CF911F910F91FF9072
:10286000DF90CF9008951F93CF93DF93FC01E25642
:10287000FE4F20816223A9F0EC010E943F31182F06
:102880000E943F31612F782F80915C030E94340EAB
:10289000462F282F672FCE01DF91CF911F910C94E7
:1028A0007F0EDF91CF911F910895CF92DF92FF921B
:1028B0000F931F93CF93DF938C01FC01C281C11151
:1028C0001DC060915D0320E1620F08F46FEF8091FD
:1028D0005F03909160030E94BD0A65E070E00E9472
:1028E0008430892B59F50E943F3165E370E00E94E6
:1028F0009830F80161810E94331420C0FC0180816E
:10290000CBE08C9FC02D11249BE0F92EFC0EF5E34B
:10291000FF1510F485E3F82ED0E0CF2CD12CCC1588
:10292000DD053CF4F8016181CE010E94331421964B
:10293000F6CFC1E0F4E3FF1508F4C0E08C2FDF917F
:10294000CF911F910F91FF90DF90CF900895DF926C
:10295000EF92FF920F931F93CF93DF938C01DC01D3
:10296000CC918BE0C89FC02D1124DBE0DC0FD63367
:1029700008F0D5E3E0905B03F0905C03D0905A033D
:1029800060915D0366956695669580915F03909171
:1029900060030E94BD0A0E94F80A805887FD819555
:1029A000880F682F2CE0629F612D11246D0D7E2D04
:1029B0008F2D0E94B90AF62EE72ED82ECD1798F447
:1029C000EC2FF0E0DF01A256BE4F8C91D80111969A
:1029D0009C91982331F02D2D4F2D6E2DCF010E940B
:1029E0007F0ECF5FEBCF81E0D53308F080E0DF9141
:1029F000CF911F910F91FF90EF90DF900895E0919C
:102A00003E02F0913F020994CF92DF92EF92FF9243
:102A10000F931F93CF93DF93CDB7DEB728970FB6F1
:102A2000F894DEBF0FBECDBF182F062FF42E0E94E4
:102A30001D1C882309F46DC0FF2049F0AE014F5FD3
:102A40005F4F602F812F0E945C0EF82E01C0F12C89
:102A5000E09086020F2D10E0C8018E0D911D0997A0
:102A600064F188E090E06C01C01AD10AB80169579E
:102A70007D4FA60187E892E00E944F31B80161576F
:102A80007D4FA6018FE892E00E944F31A601440FCE
:102A9000551FB801660F771F61567D4F8FE992E091
:102AA0000E944F31B80169567D4FA60187E992E037
:102AB0000E944F31EA94E092860210918602DE0174
:102AC000119640E0842F810FF41609F190E05D919A
:102AD000252F30E0BC016A577D4FF901EE0FFF1F33
:102AE000EC5CFE4F0081FB010183220F331FF901D3
:102AF000EC5FFE4F21A9FB012187518B880F991FA5
:102B0000FC01EA57FD4F128E118E4F5FDBCF809391
:102B1000860228960FB6F894DEBF0FBECDBFDF91B8
:102B2000CF911F910F91FF90EF90DF90CF9008957C
:102B300008950C9498150E9499150C949815089571
:102B40000C949F15CF93DF93FC01C081C1508BE0A3
:102B5000C89FC02D1124DBE0DC0FD63308F0D5E38D
:102B60006D2F8C2F0E94A0156D2F8C2FDF91CF9190
:102B70000C949F154F925F926F927F928F929F92CB
:102B8000AF92BF92CF92DF92EF92FF92CF9360917C
:102B9000AF027091B0028091B1029091B2020E9496
:102BA0005D296B017C010E9442294B015C0160930D
:102BB000AF027093B0028093B1029093B202A091E1
:102BC0008602E6E8F2E08A2F90E04FEF5FEF60E0E8
:102BD00070E04C195D096E097F09A91799F0218DE4
:102BE000328D2901612C712C441555056605770538
:102BF00010F4815004C02C0D3D1D328F218F9F5F3A
:102C00003296EBCF809386028091B302811108C087
:102C1000C09159038C2F837019F0C695C69501C0D9
:102C2000C0E08091DB018130E1F030F08230E1F1F1
:102C3000833009F446C05DC11092DC0180925F03CD
:102C400090926003A0926103B092620389E2E6E889
:102C5000F2E0A3E6B3E001900D928A95E1F781E0FE
:102C60002DC08091DF01C8130DC02091590323703E
:102C700030E04091E00150E081E02417350719F47D
:102C800080E001C081E081708093DE0180915E036D
:102C90009091DD01981741F18093DD0140E060E003
:102CA00080E00E94FF1420C0C093DF01809159038F
:102CB00083708093E0010E947A0E83E08093DB01B1
:102CC00018C160915F0370916003809161039091DE
:102CD00062030E945D29603171058105910508F448
:102CE00008C11092DB0105C18C2F90E0883291055C
:102CF00080F18091DC018F5F8093DC0182E0809322
:102D0000DB018091DE01811120C0CC23B1F20E9451
:102D10009B158CED91E0CF91FF90EF90DF90CF90DD
:102D2000BF90AF909F908F907F906F905F904F90EB
:102D30000C94A2158CED91E00E9404129091DC019C
:102D40009F5F9093DC018823C9F2CC2309F4D1C0A2
:102D5000DECFFC01EA5AFF4F0C94CB308091DE01AC
:102D6000882309F4C4C040E060E080E00E94FF14C2
:102D7000BEC08CED91E00E944312E0CF8CED91E05B
:102D80000E949912DBCF8CED91E00E94EB12D6CF1E
:102D90008CED91E00E944413D1CF8CED91E00E9424
:102DA000D50FCCCF8CED91E00E94D90FC7CF8CED21
:102DB00091E00E94760FC2CF8CED91E00E947A0FD5
:102DC000BDCF8CED91E00E94050FB8CF8CED91E066
:102DD0000E94090FB3CF8CED91E00E94DD0FAECFC2
:102DE0008CED91E00E94E10FA9CF8CED91E00E9463
:102DF000E50FA4CF8CED91E00E94E90F9FCF8CED01
:102E000091E00E940D0F9ACF8CED91E00E947E0F11
:102E100095CF8CED91E00E94820F90CF8CED91E0E8
:102E20000E94110F8BCF8CED91E00E945B1086CF3A
:102E30008CED91E00E945F1081CF8CED91E00E94BB
:102E400063107CCF8CED91E00E94E11377CF8CED85
:102E500091E00E94551472CF8CED91E00E94A7146E
:102E60006DCF8CED91E00E94ED0F68CF8CED91E07D
:102E70000E94F10F63CF8CED91E00E94D8105ECFDD
:102E80008CED91E00E94DC1059CF8CED91E00E9416
:102E9000AA1154CF8CED91E00E94B6114FCF8CED6A
:102EA00091E00E94BC114ACF8CED91E00E94C811C4
:102EB00045CF8CED91E00E94CE1140CF8CED91E09A
:102EC0000E94DA113BCF8CED91E00E94E01136CFE9
:102ED0008CED91E00E94EC1131CF8CED91E00E94DD
:102EE000F2112CCF8CED91E00E94FE1127CF80E0F3
:102EF00025CFCF91FF90EF90DF90CF90BF90AF9014
:102F00009F908F907F906F905F904F900895E09189
:102F10003A02F0913B02099510926303ECE7F3E06B
:102F20008FEF9FEF8193919323E0EC38F207D1F775
:102F300010928602EFE9F2E08FEF9FEF8193919379
:102F400022E0EF3AF207D1F70E94B027811104C0C6
:102F50000E9458280E94470E0E94370E8091590304
:102F60008C7F11F40C94470E0895CF93C82F8823BB
:102F700029F040E060E080E00E94FF14C093B302BB
:102F8000CF9108952091590391E09227909359038E
:102F90001092DB0181110C943F0E089581E00C9496
:102FA000C21790915903937091F0811102C09460FF
:102FB00007C0883210F09C6903C0880F880F982BD7
:102FC000909359031092DB0161110C943F0E089508
:102FD00061E00C94D117682F9091590396959695BE
:102FE0009F5F983210F4892F01C081E00C94D117B3
:102FF00081E00C94EB17682F909159039695969564
:10300000915011F0892F01C087E20C94D11781E013
:103010000C94FB1790915903937049F080935A03D5
:1030200060935B0340935C0321110C943F0E089561
:10303000A9E5B3E01196EC911197F0E0282F1396D3
:103040004C91139712966C91CF0108960C940A1824
:1030500081E00C941818A9E5B3E01196EC91119752
:10306000F0E0282F13964C91139712966C91CF0194
:1030700008970C940A1881E00C942B18E9E5F3E00A
:10308000628120E1620F08F46FEF9181282F438164
:10309000892F90E00C940A1881E00C943E18E9E521
:1030A000F3E0628120E1621B08F460E09181282F47
:1030B0004381892F90E00C940A1881E00C944F18FA
:1030C000E9E5F3E0438120E1420F08F44FEF9181FD
:1030D000282F6281892F90E00C940A1881E00C94CB
:1030E0006018E9E5F3E0438120E1421B08F440E089
:1030F0009181282F6281892F90E00C940A1881E039
:103100000C94711820915D0330E1230F08F42FEF28
:1031100020935D0381110C943F0E089581E00C947F
:10312000821820915D0330E1231B08F420E02093F6
:103130005D0381110C943F0E089581E00C94911869
:103140000895FC01EE0FFF1F8E0F9F1FFC01E45737
:10315000FC4F6183408322830895ECE8F3E094E020
:10316000EB32F90729F08183608342833396F7CFEE
:10317000089565E370E08CE893E00C94611988236E
:1031800011F0FA0101C0FB0109941F93CF93DF9363
:10319000FB011281112309F48CC0EC010E94E92685
:1031A0008272CB3CFCE5DF0709F46EC048F5C63CF3
:1031B000ECE5DE0709F454C070F4C43C9CE5D90783
:1031C00009F442C008F045C0C33CDC4509F074C0B6
:1031D0000E94CE1770C0C83C9CE5D90709F44AC0CC
:1031E00008F443C0C93CFCE5DF0709F448C0CA3C09
:1031F000DC4509F061C04FE758E16EE678E12DC08B
:10320000C03DECE5DE0709F450C088F4CD3C9CE5F8
:10321000D90709F443C0E8F1CE3CFCE5DF0709F427
:1032200042C0CF3CDC4509F047C085E03FC0C73D08
:103230009CE5D90728F4C23DDC45E8F582E136C0BB
:10324000CE35DD45C1F138C047E058E168EF77E1A0
:1032500004C048EF57E167E078E10E94BF182BC037
:103260004BE358E168E278E1F8CF48E258E16BE3DC
:1032700078E1F3CF4DE558E16CE478E1EECF4CE432
:1032800058E16DE578E1E9CF4EE658E16FE778E186
:10329000E4CF4DE958E16EE878E1DFCF4EE858E140
:1032A0006DE978E1DACF81E001C08DE00E94E81796
:1032B00002C011E001C010E0812FDF91CF911F917A
:1032C00008956A9A2EB12B7F3EB134604FB7F894BF
:1032D000FC01CB01880F991F680F791F6E0F7F1FAC
:1032E000E617F70789F0819198E03EB9000000C029
:1032F00087FF2EB9880F000000C000C000C02EB9A3
:1033000000C09A9591F7ECCF4FBF8FE594E00197FD
:10331000F1F700C0000008950F931F93CF93DF9340
:10332000C42FD22FFC0182818823C9F04093B602BA
:103330000E9436299093B5028093B40280E28C0FEC
:10334000883008F057C0C77081E001C0880FCA9567
:10335000EAF7DF91CF911F910F910C946F1E80912E
:10336000B602481330C08091B4029091B5020E9419
:103370004E29883C910538F510E21D0FCD17B9F0A4
:1033800080E28C0F883040F4C77081E001C0880F64
:10339000CA95EAF70E94761E183028F581E09D2F25
:1033A000977001C0880F9A95EAF70E946F1E802FD0
:1033B0000E94661E1830F0F4D77081E001C0880FBB
:1033C000DA95EAF70AC080E28C0F883098F4C7706B
:1033D00081E001C0880FCA95EAF7DF91CF911F9174
:1033E0000F910C94761E802FDF91CF911F910F913A
:1033F0000C94661EDF91CF911F910F9108950F934A
:103400009C01CB01243F4CE5340731F188F4293D80
:10341000FCE53F07D9F02A3D4CE5340779F1283D1A
:103420003C45A9F506E221EE41EE68ED7CE52BC0B6
:10343000263FFCE53F07E1F0A8F0273F3C4539F582
:1034400007E225EE46EE67EF7CE51DC007E225EEBC
:1034500045EE69ED7CE517C006E221EE40EE64EF33
:103460007CE511C007E225EE44EE65EF7CE50BC07C
:1034700006E221EE42EE66EF7CE505C008E221E0BF
:1034800045EE6AED7CE50E948C1980E008C0FC01E5
:103490008281882319F01092B60201C081E00F9159
:1034A0000895CF93DF93EC01FB018281882309F417
:1034B0001FC1C230FCE5DF0708F41BC1C6319CE523
:1034C000D90738F09E012B5F3C452930310508F0C3
:1034D00010C10E94C3279093480380934703C031D3
:1034E000ECE5DE0709F4C3C008F041C0C8308CE544
:1034F000D80709F49AC0F0F4C430ECE5DE0709F40B
:1035000087C068F4C2308CE5D80709F477C0C330AF
:10351000DC4509F0E3C080914703826076C0C63085
:10352000ECE5DE0709F46EC008F07BC0809147032C
:1035300088606BC0CC308CE5D80709F485C068F48E
:10354000CA30ECE5DE0709F474C008F079C00E94C7
:10355000FC2080914703806858C0CE308CE5D807A6
:1035600009F476C008F07FC0809147038BC0CC3F40
:10357000ECE5DE0709F44FC018F5C3318CE5D80738
:1035800009F47DC078F4C131ECE5DE0709F473C0BD
:10359000C231DC4509F0A2C00E94FC2080914703A3
:1035A0008F7733C0C5318CE5D80709F472C008F4B1
:1035B00086C0CB3FDC4509F091C0809148033EC0F6
:1035C000C115FDE5DF0709F45FC058F4CE3F9CE567
:1035D000D90709F444C008F43FC0809148038260D1
:1035E0002DC0C230FDE5DF0709F475C008F45DC0E9
:1035F000C330DD4509F072C080E06EC080914703A2
:10360000816003C08091470380618093470366C057
:103610008091470311C080914803826080934803E2
:103620005DC0809147038062F0CF80914703806442
:10363000ECCF8091470388608460E7CF8160EECF54
:10364000809147038E7FE1CF809147038D7FDDCF4F
:1036500080914703877FD9CF8091480318C080911C
:1036600048038D7FDBCF809147038F7ECECF809143
:1036700047038F7DCACF809147038F7BC6CF809150
:103680004703877F8B7FC1CF809148038D7F8E7FDB
:10369000C5CF8091470382FB222720F991E0922732
:1036A00090FB82F990FB83F9B0CF80914803982F6B
:1036B000909591708E7F892B90FB81F9AFCF0E94FE
:1036C000FC208091470387FB222720F991E0922775
:1036D00090FB87F99ACF81E00E945A288091470396
:1036E000909148030E94D4270E94FC2080E001C0F2
:1036F00081E0DF91CF910895CF93DF9386319C4590
:1037000041F5EB010E94E926982F8A812091E10181
:103710003091E201882379F09A7A81E009F480E01F
:103720008093B702911102C069E201C065E3C9014B
:103730000E94A1280AC08091B702811102C069E2EB
:1037400001C065E3C9010E94A3280E943B2780E0D5
:1037500001C081E0DF91CF9108959093BD028093E5
:10376000BC020895E091BC02F091BD02309721F0B7
:103770000190F081E02D099480E00895E091BC0271
:10378000F091BD02309721F00280F381E02D099481
:103790000895E091BC02F091BD02309739F022E02B
:1037A000DC012C930480F581E02D0994089520918B
:1037B000BA023091BB022817390771F09093BB020F
:1037C0008093BA02E091BC02F091BD02309721F0E3
:1037D0000680F781E02D099408952091B802309178
:1037E000B9022817390771F09093B9028093B80293
:1037F000E091BC02F091BD02309721F00084F18588
:10380000E02D099408950E9442296093CB027093A1
:10381000CC028093CD029093CE026093C702709346
:10382000C8028093C9029093CA02089585B7806840
:1038300085BF85B7806885BF089581E008950C94A1
:103840001D1C08950C94211C0C94211C0C94241C08
:103850000C94211C0C94281C0C94211C0E94161CF6
:1038600088EA97E20E94C3290E942C1C0C942A1C0F
:103870000E94221C0C94211C0E942D290E948A0661
:103880000C94261C6F927F928F929F92AF92BF9260
:10389000CF92DF92EF92FF920F931F93CF93DF931C
:1038A000CDB7DEB72A970FB6F894DEBF0FBECDBFF7
:1038B0000E94CD0681110E94031C3FEB832E32E053
:1038C000932E00E010E0E02E802F0E9458065C014D
:1038D000F401619071904F0168267926611471049A
:1038E000B1F40F5F1F4F0430110569F78FEF898323
:1038F0008A831B820E9436298160782F9D838C8366
:1039000049815A816B818D810E94031D43C0809142
:103910003B0381FD0E946106F12CCC24C394D12C81
:10392000C3018C219D21892B71F10E941F1CAC20A9
:10393000BD208823A1F0FE82EF8281E0A114B104B2
:1039400009F480E088870E9436298160782F9A8761
:1039500089874E815F8168858A850E94031D000FDB
:10396000111FF801E154FD4F80819181C826D926AD
:10397000D182C08241E0AB2809F440E06F2D8E2D4A
:103980000E94041507C0F394CC0CDD1CFCE0FF1270
:10399000C7CFA7CF0E94BA150E9408090E94B21B88
:1039A0009091BE028917D1F00E94B21B8093BE0293
:1039B0002A960FB6F894DEBF0FBECDBFDF91CF9130
:1039C0001F910F91FF90EF90DF90CF90BF90AF903D
:1039D0009F908F907F906F900C9405042A960FB65D
:1039E000F894DEBF0FBECDBFDF91CF911F910F9135
:1039F000FF90EF90DF90CF90BF90AF909F908F900F
:103A00007F906F900895DF92EF92FF920F931F9334
:103A1000CF93DF93CDB7DEB72B970FB6F894DEBF09
:103A20000FBECDBFF42E052F162FE72ED82E611115
:103A30000E940927FE01319686E0DF011D928A95DA
:103A4000E9F77E2D4F2D502F612F8D2D9E810E94E5
:103A5000B5232B960FB6F894DEBF0FBECDBFDF9116
:103A6000CF911F910F91FF90EF90DF900895FC018F
:103A7000808191810E9489260895CF93882309F43B
:103A8000A4C0C82F8238C1F40E94B21B81FD9DC022
:103A900069E38091E1019091E2010E94A1280E94D6
:103AA0003B272FEF81EE94E0215080409040E1F7DA
:103AB00000C0000069E319C0833801F50E94B21B01
:103AC00080FD83C063E58091E1019091E2010E9455
:103AD000A1280E943B272FEF81EE94E021508040E7
:103AE0009040E1F700C0000063E58091E101909112
:103AF000E2010E94A328CF910C943B278438C1F4A3
:103B00000E94B21B82FD61C067E48091E101909147
:103B1000E2010E94A1280E943B272FEF81EE94E052
:103B2000215080409040E1F700C0000067E4DDCF05
:103B30008CEF8C0F813AD0F46C2F8091E101909141
:103B4000E2010E946B28882349F06C2F8091E101EB
:103B50009091E2010E94A3280E943B276C2F809144
:103B6000E1019091E2010E94A128C5CF80E28C0F73
:103B7000883048F4C77081E001C0880FCA95EAF721
:103B80000E94EC26B8CFEBE5EC0FE33040F4F0E018
:103B9000E059FD4F808190E0CF910C94D71BE8E570
:103BA000EC0FE73150F4F0E0EE0FFF1FEE5BFD4F3E
:103BB00080819181CF910C94ED1BCD3E30F08C2F04
:103BC0000E941808CF910C94EA08CF910895882399
:103BD00009F464C0823879F40E94B21B81FF5EC090
:103BE00069E38091E1019091E2010E94A1280E9485
:103BF0003B2769E310C08338B1F40E94B21B80FFF9
:103C00004DC063E58091E1019091E2010E94A128FD
:103C10000E943B2763E58091E1019091E2010E94BF
:103C2000A3280C943B27843879F40E94B21B82FFAE
:103C300035C067E48091E1019091E2010E94A128E2
:103C40000E943B2767E4E7CF9CEF980F913A10F46E
:103C5000682FE1CF90E2980F983050F4877091E090
:103C600001C0990F8A95EAF7892F0E94F226D9CFD1
:103C70009BE5980F933020F480E090E00C94D71BE4
:103C800098E5980F973120F480E090E00C94ED1BBC
:103C90008D3E20F00E9473080C94EA0808951F934B
:103CA000CF93DF93182FEB010E943D1D209741F029
:103CB0008FE99FE00197F1F700C000002197F6CF50
:103CC000812FDF91CF911F910C94E71D893319F05B
:103CD00060E070E002C060E570E00C944F1E882345
:103CE00021F00E94EC260C943B270895882321F0B4
:103CF0000E94F2260C943B270895CF92DF92EF9218
:103D0000FF920F931F93CF93DF937C01062FC72F52
:103D1000FC01D281158112951F700E94C126882353
:103D200099F0DD2389F08C2F807F803421F080E2B0
:103D3000800F883048F082E00E948B270E94C126C5
:103D400091E0D82ED92601C0D12CCC2EC2948FE080
:103D5000C8228C2D90E0FC01E258FF4F0C94CB3030
:103D60008C2F807FCF70882311F0C295C07FDD2318
:103D700099F0CC2309F48DC180E2800F883010F0D7
:103D8000011104C08C2F0E94EC2603C08C2F0E94CE
:103D9000FC260E943B277DC1802F0E94E71DCC237B
:103DA00009F49CC180E2800F883010F0011104C03A
:103DB0008C2F0E94F22603C08C2F0E9402270E94A3
:103DC0003B278CC18C2F807FCF70803211F0C29541
:103DD000C07F002319F00130C9F022C0DD2371F04B
:103DE000112341F0113031F40E941C278C2B0E94CA
:103DF000242774C10E941C278C2B1DC0112319F08D
:103E0000113009F46BC10E94312725C0DD2321F058
:103E1000163008F063C10EC0153008F05FC11BC03A
:103E2000DD2361F0112331F0F701858180FF31C17D
:103E30008F7085838C2F0E946F1E50C1112359F003
:103E4000093309F037C1FFEF27EE83E0F15020403E
:103E50008040E1F72DC18C2F0E94761E3FC18C2F30
:103E600086958695837019F0813061F037C1DD2326
:103E700021F0802F9C2F937002C080E090E00E9480
:103E8000D71B34C1DD2321F0802F9C2F937002C0FB
:103E900080E090E00E94ED1B29C1802FDD2319F006
:103EA0000E94180802C00E9473080E94EA081EC1FE
:103EB0008C2F837009F045C0D11114C1402F429559
:103EC00046954770440F440F602F6F70862F90E027
:103ED000A0E0B0E0042E04C0880F991FAA1FBB1FEA
:103EE0000A94D2F704FF10C00FE010E020E030E0A9
:103EF00004C0000F111F221F331F4A95D2F70095EF
:103F000010952095309503C000E010E09801C6950B
:103F1000C695C370BC01CD01602B712B822B932BF6
:103F2000C23049F058F4C13019F00E940625DAC0B9
:103F30000E94F424D7C00E941825D4C00E94F22405
:103F4000D1C0DD2319F08C2F817001C086958823A4
:103F500009F4C8C0402F429546954770440F440F5E
:103F6000602F6F70862F90E0A0E0B0E0042E04C0B8
:103F7000880F991FAA1FBB1F0A94D2F704FF10C015
:103F80000FE010E020E030E004C0000F111F221FFE
:103F9000331F4A95D2F7009510952095309503C0B0
:103FA00000E010E09801C695C695C370BC01CD0134
:103FB000602B712B822B932BC23049F058F4C13007
:103FC00019F00E94CB258EC00E94B9258BC00E949B
:103FD000DD2588C00E942C2585C0CF70DD2339F0F7
:103FE0008C2F0E945225802F0E946F1E7BC0802F35
:103FF0000E94761E8C2F0E94732574C0023F01F12F
:1040000028F4003F41F0013FA1F03FC0033FF9F029
:10401000043F39F13AC0DD2341F0153008F05EC0AD
:104020008C2F8F710E94982559C0163008F056C009
:10403000F7CFDD2339F08C2F8F710E9452254EC0AF
:10404000DD23C9F38C2F8F710E94732547C0DD23B8
:1040500029F08C2F8F710E943D2540C00E94382589
:104060003DC0DD2349F0CF718C2F0E94522563E0C3
:104070008C2F0E94702732C081E00E948B27123063
:1040800068F182E00E948B2729C0DD2331F01123E3
:1040900091F2802F0E943D1D21C0112399F2093316
:1040A00049F49FEFE7EEF3E09150E040F040E1F794
:1040B00000C00000802F0E94E71D10C04C2F4F70E1
:1040C000602FC7010E940E040E9463240FC04C2F72
:1040D0004F70602FC7010E94110408C088EF8C0D3B
:1040E000843020F40E94B21B0E940504DD20C9F038
:1040F0000E94BD2680FD15C0F70112820E94B726DE
:104100000E945225C7010E94B2200E94B726DF916B
:10411000CF911F910F91FF90EF90DF90CF900C9473
:104120007325DF91CF911F910F91FF90EF90DF905A
:10413000CF9008950F931F93CF93DF93EC01688185
:1041400079818A810E9494268C010E94EF250E9429
:10415000E024B801CE010E947D1EDF91CF911F9116
:104160000F910895CF93DF93EC01988189812B8182
:104170003C81232B31F08F3F31F481E09F3F19F4D4
:1041800003C081E001C080E080FD19C0CE010E9423
:10419000A50381110CC00E94C126882381F08A8169
:1041A000882369F082E0DF91CF910C948B27CE01B8
:1041B0000E949A20CE01DF91CF910C948203DF916F
:1041C000CF91089580E090E00E94D71B80E090E0BE
:1041D0000E94ED1B0E9409270E9419270E943B277D
:1041E0000E941B0A0C94EA088091E1019091E2017F
:1041F0000E94A5280C94E2200E94F9260C94F42039
:10420000E92FE295EF704E2F50E0FA013297EE3031
:10421000F105B0F4E257FF4F0C94CB30803F91F0A2
:1042200018F4883E68F40EC0843F51F40BC0883EF9
:1042300048F0813F29F406C093FB882780F9089550
:1042400080E0089581E008950E9489260E9400215F
:104250000895CF93DF9300D000D01F92CDB7DEB783
:104260000F900F900F900F900F90DF91CF910895C6
:10427000CF93DF9300D000D000D0CDB7DEB7269625
:104280000FB6F894DEBF0FBECDBFDF91CF9108957A
:104290001F93CF93DF93C091D00216E08091D1029B
:1042A000C81799F0D0E01C9FF0011D9FF00D11245C
:1042B000EE52FD4F408151816281738184819581ED
:1042C0000E9438212196C770E9CFDF91CF911F91CD
:1042D000089540910203509103036091040370918B
:1042E000050380910603909107030C9438210F93E6
:1042F0001F93CF93DF938091070382958F7009F00E
:104300005DC080910403882309F458C08091D002D5
:104310001091D1026091020370910303C0910503D3
:10432000D091060391E06F3F09F090E0292F06E05D
:10433000811709F443C0209721F07F3F21F030E03E
:1043400003C031E001C0322F90E030FD34C0089F3F
:10435000F001099FF00D1124DF01AE52BD4F1196FF
:104360003C911197371327C03C91361324C0129605
:104370003C91129731111FC013964D915C91149787
:104380004C1B5D0B483C5105B0F4809107038F70C6
:10439000806180930703E952FD4F80818F708061B7
:1043A000808382E093E00E94B220DF91CF911F9141
:1043B0000F910C94482101968770BACFDF91CF916D
:1043C0001F910F9108959F92AF92BF92CF92DF926B
:1043D000EF92FF920F931F93CF93DF93CDB7DEB78A
:1043E00061970FB6F894DEBF0FBECDBF8C0185E09C
:1043F000F801DE011D9601900D928A95E1F7F80112
:1044000040815181E28090910203609103032091E9
:104410000503309106032115310531F06F3F31F46A
:1044200081E09F3F19F403C081E001C080E0F82FD4
:10443000F1709F2E80FD46C1F801A380B48082E018
:10444000C82E83E0D82EF0900403F501E21BF30B95
:10445000FF2009F4DFC080910703E83CF10508F074
:104460009BC0282F207F09F052C0561313C0491358
:1044700011C0FE2CE1100EC08F7080618093070385
:104480000E946921C6010E94B22080910703F801B1
:10449000858358C1AB2831F05F3F31F481E04F3F55
:1044A00019F403C081E001C080E080FD03C081E019
:1044B0008E2502C080E090E0F82FF170FF2E80FF83
:1044C0001CC08091D0022091D10236E0821709F4FD
:1044D00017C190E0389FF001399FF00D1124EE5282
:1044E000FD4F6181561306C06081461303C062818F
:1044F000E61203C001968770E9CFFE2CEE2009F486
:1045000021C1809107038160809307035AC056132D
:1045100006C0491304C0E11002C0F8019FC04D87D6
:104520005E878D859E850E942421882379F1EE2067
:1045300069F120910703822F82958F7090E0029796
:1045400074F0809102039091030398878F831986FA
:10455000BB86AA862C87CE0107960E94B22086E0F1
:10456000F801A2E0B3E001900D928A95E1F70E9474
:1045700077210E9469210DC0561729F14D875E876A
:104580008D859E850E94242181112CC0C8010E9426
:10459000B220FF24F394D6C0282F207F69F77A2D0C
:1045A000B98AA88A6E2D89890E94292182E093E028
:1045B0000E94B22086E0F60111928A95E9F70E94E6
:1045C0006921F12CBFC04913D9CFE110D7CFF80131
:1045D0008583C8010E94B22086E0F60111928A9577
:1045E000E9F7B0C0EE2091F220910703822F829567
:1045F0008F7090E002970CF4B2CF809102039091FB
:1046000003039A8389831B82BD82AC822E83CE01F1
:104610000196A3CFE83CF10508F047C0FE2CEE2040
:1046200009F4B4CF561330C049132EC020910703AC
:1046300020FD21C0822F82958F70482F50E04115B8
:104640005105C9F0F80125834F30510541F08F5FC6
:10465000982F9295907F822F8F70892B8583C80128
:104660000E94B22086E0F801A2E0B3E001900D9232
:104670008A95E1F742C086E0F801A2E0B3E001903C
:104680000D928A95E1F75EC04D875E878D859E8588
:104690000E942421811163CF809107038160809360
:1046A0000703C8010E94B2204DC07A2DB98AA88A9A
:1046B0006E2D89890E94292186E0F60111928A9542
:1046C000E9F71BC0EE2009F461CF4D875E878D8529
:1046D0009E850E942421F82E882309F457CF86E076
:1046E000F801A2E0B3E001900D928A95E1F782E033
:1046F00093E00E94371D0E9477210E94692122C009
:104700004D875E878D859E850E948926292F22955B
:104710002F70223028F49F7039F0811105C00BC032
:10472000243028F49F7049F4805E883020F0C8015E
:104730000E94B2209F2CF92C05C0F8019581907F32
:1047400099F7F9CF8F2D61960FB6F894DEBF0FBEA3
:10475000CDBFDF91CF911F910F91FF90EF90DF9030
:10476000CF90BF90AF909F9008951F93CF93DF930A
:10477000CDB7DEB72C970FB6F894DEBF0FBECDBF16
:104780004F83588769877A878B879C87CE010796E6
:104790000E94E3218823D1F09F8188852A853B856B
:1047A000232B31F08F3F31F481E09F3F19F403C098
:1047B00081E001C080E080FD47C04F815885698558
:1047C0007A858B859C850E9438213EC086E0FE015B
:1047D0003796DE01119601900D928A95E1F7FF81DF
:1047E000E8856A857B856115710531F0EF3F31F40D
:1047F00081E0FF3F19F403C081E001C080E080FD4B
:1048000023C02091D10230E0C90101968770992719
:104810004091D00250E084179507F1F1F983EA83C3
:104820007D836C8396E0929FD001939FB00D1124FD
:10483000AE52BD4FFE01319601900D929A95E1F76F
:104840008093D1020E94482116E08091D00290917D
:10485000D102891771F1189FC00111248E529D4F0A
:104860000E94E321882329F1E091D0021E9FF001EC
:104870001124EE52FD4F4081518162817381848108
:1048800095810E9438218091D00290E00196877036
:1048900099278093D002D9CF0E94FC201092D10298
:1048A0001092D002E2E0F3E086E0DF011D928A95EB
:1048B000E9F72C960FB6F894DEBF0FBECDBFDF919F
:1048C000CF911F910895EF92FF920F931F93CF9373
:1048D000DF938C01892B09F46CC0F12CEE24E39456
:1048E000E8012196F8018491843740F4843008F07F
:1048F00051C0813081F0823019F15BC0853709F4F5
:1049000044C0A8F19CE7980F903708F052C08F7709
:104910000E94E71D41C00E5F1F4FFE01849190E28F
:10492000980F983050F48770FE2D01C0FF0F8A95C4
:10493000EAF78F2F0E940C2714C00E943D1D2DC046
:104940000E5F1F4FFE01849190E2980F983060F443
:104950008770FE2D01C0FF0F8A95EAF78F2F0E9406
:1049600012270E943B2719C00E94E71D16C00E5F48
:104970001F4FFE01C491CC2381F08FE99FE0019786
:10498000F1F700C00000C150F6CF0E5F1F4FFE01CF
:10499000F49003C00E943D1D8E018F2D882309F4E1
:1049A0009FCFEFE9FFE03197F1F700C000008150A1
:1049B000F5CFDF91CF911F910F91FF90EF90089568
:1049C000089508950C94E1240C94E2240E94E424B8
:1049D00060932A0370932B0380932C0390932D03F1
:1049E0000C94E2200C94E6240F931F9300912A0369
:1049F00010912B0320912C0330912D03602B712BF0
:104A0000822B932B1F910F910C94E6240F931F93ED
:104A100000912A0310912B0320912C0330912D0338
:104A200060237123822393231F910F910C94E6241A
:104A30000F931F9300912A0310912B0320912C03B5
:104A400030912D0360277127822793271F910F91A3
:104A50000C94E6240C94E1240E942A2560932603FA
:104A60007093270380932803909329030C94E220EA
:104A700060E070E0CB010C942C250F931F9341E074
:104A800050E060E070E08A019B0104C0000F111F3C
:104A9000221F331F8A95D2F7C901B8011F910F91C8
:104AA0000C942C250F931F9341E050E060E070E0E0
:104AB00004C0440F551F661F771F8A95D2F7809157
:104AC000260390912703A0912803B09129038A011E
:104AD0009B01082B192B2A2B3B2BC901B8011F91D5
:104AE0000F910C942C250F931F9341E050E060E050
:104AF00070E004C0440F551F661F771F8A95D2F7D8
:104B0000409550956095709580912603909127036C
:104B1000A0912803B09129038A019B01082319233E
:104B20002A233B23C901B8011F910F910C942C2516
:104B30000F931F9341E050E060E070E004C0440F29
:104B4000551F661F771F8A95D2F780912603909193
:104B50002703A0912803B09129038A019B0108270C
:104B600019272A273B27C901B8011F910F910C94DF
:104B70002C250F931F93009126031091270320915A
:104B8000280330912903602B712B822B932B1F91CB
:104B90000F910C942C250F931F93009126031091D5
:104BA0002703209128033091290360237123822356
:104BB00093231F910F910C942C250F931F93009119
:104BC00026031091270320912803309129036027A1
:104BD0007127822793271F910F910C942C250895FC
:104BE0002CE0929F800D1124E82FE695E695E6953E
:104BF000877051E001C0550F8A95EAF785E0E89F7C
:104C0000F0011124E85FFC4F20E030E070E04081CB
:104C1000CB01022E02C0969587950A94E2F7817027
:104C2000819584278523842781932F5F3F4F2530EB
:104C3000310569F708952CE0929F800D1124682FAB
:104C4000669566956695982F977085E0689FB00188
:104C5000112440E050E080E0FB01E40FF51FE85F25
:104C6000FC4F208130E0092E02C0369527950A942A
:104C7000E2F721703327042E01C0220F0A94EAF7CD
:104C8000822B4F5F5F4F4530510531F70895BF923A
:104C9000CF92DF92EF92FF920F931F93CF93DF9308
:104CA0008C01C0902603D0902703E0902803F09059
:104CB000290380912A0390912B03A0912C03B0919A
:104CC0002D03C82AD92AEA2AFB2ACFE1D0E0D7014E
:104CD000C6010C2E04C0B695A795979587950A94A2
:104CE000D2F780FD04C0219790F7B12C07C0BC2EED
:104CF000B8018C2F0E942D040197A9F38B2DDF9111
:104D0000CF911F910F91FF90EF90DF90CF90BF90C8
:104D10000895CF93DF93EC010E944726BE010E94C5
:104D20002D04DF91CF9108951F93CF93DF93EB0173
:104D30009091CF02992321F0CB010E94892613C0C4
:104D4000882349F0CB010E944726182F682FCE01F7
:104D50000E94F02504C0CB010E941B26182FBE0123
:104D6000812F0E942D04DF91CF911F910895809192
:104D70002E03859585958595089580912E038770DE
:104D8000089590912E03977081E009F480E00895D2
:104D90009091480392FB222720F9281751F080FBBD
:104DA00092F99093480380914703909148030C94A3
:104DB000D42708958091480382FB882780F991E0E9
:104DC00089270C94C82681E00C94C82680E00C94B6
:104DD000C82680913A03089590913A03892B8093D5
:104DE0003A030895809590913A03892380933A037A
:104DF000089510923A03089590913903892B809376
:104E0000390308958095909139038923809339035C
:104E1000089510923903089590913803892B809357
:104E2000380308958095909138038923809338033F
:104E3000089510923803089580912F0308950895DE
:104E40000C941F270C9420279091480392FD08C0D2
:104E500090912F03981721F080932F030C94222711
:104E6000089580912F03882329F010922F0380E06A
:104E70000C9422270895E091E101F091E2018091E4
:104E80003A038083E091E101F091E2019081809109
:104E90003903892B8083E091E101F091E201908157
:104EA00080913803892B808380912F03882381F0A0
:104EB000E091E101F091E2019081892B8083809162
:104EC000E1019091E2010E945F2881110E94312747
:104ED0008091E1019091E2010C94BE1B0C941F277C
:104EE0009091480392FD10C098E0899F9001112491
:104EF000262B20932E030E94522580912E03859508
:104F0000859585950C946E270C94522510922E034E
:104F100080E00C946E2720912E038095822380934D
:104F20002E03982F977041F430E0482F082E000C84
:104F3000550B2417350721F49091480392FF07C0C1
:104F40008595859585950E9473250C9486270895EF
:104F500080E008956FEF7FEF80E090E00C94A43143
:104F600080E090E00E94703121E08A3E9E4F09F07F
:104F700020E0822F089582E090E00C94683183E075
:104F800090E00C946831CF9384E090E00E94683107
:104F9000C82F82E290E00E9468312C2F30E0A901F6
:104FA000582BCA01CF910895CF93C92F682F84E061
:104FB00090E00E9486316C2F82E290E0CF910C94B9
:104FC0008631AB01BC018FE090E00C949831AB01CD
:104FD000BC0183E190E00C94983160E070E0CB017B
:104FE0000C94E72760E070E0CB010E94E1270C946D
:104FF000ED276AEE7EEF80E090E00E94A43160E051
:1050000082E090E00E94863160E083E090E00E94C0
:10501000863110922A0310922B0310922C031092C7
:105020002D0360E084E090E00E94863160E082E23F
:1050300090E00E94863160E085E090E00E94863139
:1050400060E086E090E00E9486316FEF87E090E0BC
:105050000E94863140E050E0BA0188E090E00E9472
:10506000983160E08DE090E00E94863140E050E0B1
:10507000BA0188E190E00E94983160E087E190E019
:105080000E94863140E050E0BA018CE190E00E943D
:10509000983160E070E080E290E00E94A43140E04E
:1050A00050E0BA0188E190E00E9498310C94F22718
:1050B0000C94F927682F8EE090E00C948631FC0167
:1050C000329697E080E0915029F021912223D9F384
:1050D0008F5FF9CF0895662349F0FC013296089658
:1050E0002191621729F0E817F907D1F780E00895B8
:1050F00081E008959C01FC0132969FEF80E0419190
:10510000461789F09F3F19F4411101C0982F8F5F16
:105110008630A9F79F3F39F0F901E90FF11D97FD9E
:10512000FA956283089508959C012A5F3F4FFC0120
:105130004281461301C01282019682179307B9F784
:1051400008950C947A280C949428029626E0FC0189
:1051500011922A95E9F7089508950C94AC280C94BF
:10516000AC28CF930E94AF280E94CD060E94AD28A4
:10517000C0E08C2F0E945806892B29F4CF5FC430E1
:10518000C1F780E001C081E0CF9108950C94AC2874
:1051900080913304843061F10E94330380E00E94E7
:1051A000050481E00E94B51710923C0320E488E1D9
:1051B00090E00FB6F894A895809360000FBE2093FE
:1051C000600083B7817F846083BF83B7816083BFC2
:1051D0007894889583B78E7F83BF0FB6F894A8958F
:1051E00080916000886180936000109260000FBE23
:1051F00008950E94FC200E94B21B0E94050480E0DA
:105200000E94B5170C9438031F920F920FB60F929D
:1052100011248F939F93AF93BF9380913C0381118F
:1052200013C080912B0490912C04A0912D04B09177
:105230002E044196A11DB11D80932B0490932C0444
:10524000A0932D04B0932E04BF91AF919F918F91A5
:105250000F900FBE0F901F90189582E084BD93E0D1
:1052600095BD9AEF97BD80936E0008952FB7F8947F
:1052700080912B0490912C04A0912D04B0912E04C8
:105280002FBF08952FB7F89460912B0470912C04D0
:1052900080912D0490912E042FBF08959C014FB74B
:1052A000F89480912B0490912C04A0912D04B0913E
:1052B0002E044FBF821B930B0895CF92DF92EF9283
:1052C000FF922FB7F894C0902B04D0902C04E0905C
:1052D0002D04F0902E042FBFA7019601261B370B3B
:1052E000480B590BCA01B901FF90EF90DF90CF90A6
:1052F000089578941F920F920FB60F9211248F93F6
:105300009F93AF93BF9380912B0490912C04A09115
:105310002D04B0912E040196A11DB11D80932B0484
:1053200090932C04A0932D04B0932E04BF91AF91C1
:105330009F918F910F900FBE0F901F90189581E055
:105340008093E00080E28093D8001092C9008FE142
:105350009EE40197F1F700C0000087E090EBDC01CC
:1053600080933C0490933D04A0933E04B0933F048B
:105370009CE088E10FB6F894A895809360000FBE7A
:1053800090936000FFCF909375028093740208950C
:10539000809145030895CF93DF9300D01F92CDB73E
:1053A000DEB790913304943019F589837B836A8347
:1053B00082E08093E9008FEF9091E800815095FDA5
:1053C00006C095ED9A95F1F700008111F5CF809117
:1053D000E80085FF0DC040E050E063E070E0CE01E2
:1053E00001960E94E62B8091E8008E778093E8007A
:1053F0000F900F900F90DF91CF910895BC0184E042
:105400000C94CB29BC0183E00C94CB2922E020939F
:10541000E9002FEF3091E800215035FD06C035ED51
:105420003A95F1F700002111F5CF2091E80025FF12
:105430000BC040E050E066E070E00E94E62B8091F7
:10544000E8008E778093E8000895CF93DF9321E002
:105450002093E9002FEF3091E800215035FD06C080
:1054600035ED3A95F1F700002111F5CF2091E800D4
:1054700025FF14C0EC0140E050E068E070E00E94BD
:10548000E62B8091E8008E778093E80088E0FE01AB
:10549000ADE3B3E001900D928A95E1F7DF91CF91F2
:1054A000089580913204811109C00E94772D0E94D5
:1054B000D42D8091E20084608093E20008951092E0
:1054C0003204089508950895089542E061EC81E062
:1054D0000E94F02C42E261EC82E00C94F02C80916E
:1054E0003504833009F460C030F4813071F08230CB
:1054F00009F499C008958A3009F485C08B3009F405
:105500006BC0893009F0A7C020C080913404813A73
:1055100009F0A1C08091E800877F8093E800809126
:10552000380490913904892B21F468E08DE393E0ED
:1055300003C060E080E090E070E00E94312C809138
:10554000E8008B778093E8000895809134048132DD
:1055500009F081C08091380490913904029708F0D5
:105560007AC08091E800877F8093E8008091E8000E
:1055700082FD05C0809133048111F8CF6CC0209169
:10558000F3008091F20090E0922B029729F4809131
:10559000F1008B7F813021F48091F10080934503ED
:1055A0008091E8008B7753C080913404813A09F0F0
:1055B00052C08091380490913904892B09F04BC076
:1055C0008091E800877F8093E8008091E80080FF69
:1055D000FCCF8091ED0136C0809134048132D9F541
:1055E0008091380490913904892BA9F58091E800C5
:1055F000877F8093E8000E94252D80913604809358
:10560000ED010C94FC2080913404813221F58091CD
:10561000E800877F8093E8000E94252D8091370461
:1056200080934603089580913404813AA1F48091D7
:10563000E800877F8093E8008091E80080FFFCCF3E
:10564000809146038093F1008091E8008E778093EB
:10565000E8000C94252D089584B7877F84BF0FB68A
:10566000F894A89580916000886180936000109202
:1056700060000FBE90E080E80FB6F8948093610060
:10568000909361000FBE0E942E1C0E94772D0E94F5
:10569000D42D8091E20084608093E20078940E948F
:1056A00069300E943C1C83EE91E00E94AD1B80910A
:1056B00033048530A9F480913304853079F40E9455
:1056C000C828809131048823B1F30E94B12888232F
:1056D00091F30E94D02B0E94FC20EDCF0E94F9286C
:1056E0000E94421C0E94381CE2CF0C94772B292F79
:1056F000332723303105C9F060F42130310581F0C2
:105700002230310509F044C08BE390E02CEC34E00A
:1057100043C021323105E1F02232310549F138C070
:1057200082E190E027E035E037C09927813091058C
:1057300049F028F0029761F5ECE8F4E005C0E8ECE8
:10574000F4E002C0E0EBF4E0849190E09F0124C01B
:105750006115710541F061307105D1F489E090E087
:1057600027EF34E019C089E090E02EED34E014C05A
:105770006115710541F06130710551F48BE790E0DE
:1057800029E135E009C080E490E024E935E004C077
:1057900080E090E020E030E0FA013183208308953A
:1057A00080E189BD82E189BD09B400FEFDCF809111
:1057B000D8008F7D8093D8008091E0008260809334
:1057C000E0008091E00081FDFCCF0895CF92DF9250
:1057D000EF92FF920F931F93CF93DF93EC018B0116
:1057E0007A010E94442D811133C0E114F10439F093
:1057F000F70180819181081B190BC80FD91FC12C9B
:10580000D12C0115110519F18091E80085FD16C014
:105810008091E8008E778093E800E114F10449F06C
:10582000F70180819181C80ED91ED182C08285E0A6
:105830000FC00E94442D882321F30AC089918093D0
:10584000F10001501109FFEFCF1ADF0ADACF80E033
:10585000DF91CF911F910F91FF90EF90DF90CF904C
:10586000089520913A0430913B042617370748F0F9
:105870006115710539F42091E8002E772093E80036
:1058800001C0B901FC0120E06115710579F1809139
:1058900033048823F1F18530F1F18091E80083FD34
:1058A0003CC08091E80082FD2EC08091E80080FF1E
:1058B000EBCF2091F3008091F20090E0922B6115E4
:1058C000710551F08830910538F421912093F10051
:1058D000615071090196F3CF21E0089709F020E0AB
:1058E0008091E8008E778093E800CECF2111CFCF52
:1058F0000AC080913304882361F0853061F0809183
:10590000E80083FD0AC08091E80082FFF2CF80E0CA
:10591000089582E0089583E0089581E0089520913C
:105920003A0430913B042617370748F0611571059A
:1059300039F42091E8002E772093E80001C0B901E6
:10594000FC0120E06115710591F1809133048823F9
:1059500009F440C0853009F43FC08091E80083FD20
:105960003DC08091E80082FD2FC08091E80080FF5B
:10597000E9CF2091F3008091F20090E0922B611525
:10598000710559F08830910540F424912093F1007D
:105990003196615071090196F2CF21E0089709F024
:1059A00020E08091E8008E778093E800CBCF211132
:1059B000CCCF0AC080913304882361F0853061F038
:1059C0008091E80083FD0AC08091E80082FFF2CF59
:1059D00080E0089582E0089583E0089581E00895CD
:1059E000982F973068F59093E900981739F07091E7
:1059F000EC002091ED005091F00003C0242F762F91
:105A000050E021FD02C09F5FECCF3091EB003E7F64
:105A10003093EB003091ED003D7F3093ED003091FD
:105A2000EB0031603093EB007093EC002093ED00BD
:105A30005093F0002091EE0027FDE5CF80E008951F
:105A40008F708093E90081E008958091340487FF8E
:105A500011C08091E80082FD05C08091330481115E
:105A6000F8CF11C08091E8008B770BC08091330490
:105A7000882349F08091E80080FFF8CF8091E8000A
:105A80008E778093E80008952091E4003091E5003E
:105A900095E64091EC00842F817040FF23C08091F7
:105AA000E80080FD1DC080913304882399F0853083
:105AB00099F08091EB0085FD11C04091E400509178
:105AC000E5002417350729F3915011F09A01E1CF31
:105AD00084E0089582E0089583E0089581E00895C8
